:020000040800F2
:1080000090090020118200082D9B00081596000899
:10801000319A0008ED83000835AF00080000000029
:108020000000000000000000000000003DA000086B
:10803000C58D000800000000659D000865A90008C6
:108040002B8200082B8200082B8200082B8200085C
:108050002B8200082B8200082B8200082B8200084C
:108060002B8200082B8200082B8200082B8200083C
:108070002B8200082B8200082B8200082B8200082C
:108080002B8200082B8200082B8200082B8200081C
:10809000E9AE00082B8200082B8200082B82000822
:1080A0002B8200082B8200082B8200082B820008FC
:1080B0002B8200082B8200082B8200082B820008EC
:1080C0002B8200082B8200082B8200082B820008DC
:1080D0002B820008E1A900082B8200082B820008EF
:1080E0002B8200082B82000803AC00082B820008BA
:1080F0002B8200082B8200082B8200082B820008AC
:108100002B8200082B8200082B8200082B8200089B
:108110002B8200082B8200082B8200082B8200088B
:108120002B8200082B8200082B8200082B8200087B
:1081300000F002F800F05CF80AA090E8000C82441D
:108140008344AAF10107DA4501D100F051F8AFF2FA
:10815000090EBAE80F0013F0010F18BFFB1A43F025
:1081600001031847BC310000DC3100000A444FF025
:10817000000C10F8013B13F0070408BF10F8014B86
:108180001D1108BF10F8015B641E05D010F8016BCB
:10819000641E01F8016BF9D113F0080F1EBF10F82F
:1081A000014BAD1C0C1B09D16D1E58BF01F801CB52
:1081B000FAD505E014F8016B01F8016B6D1EF9D5D5
:1081C0009142D6D3704700000023002400250026EA
:1081D000103A28BF78C1FBD8520728BF30C148BF2A
:1081E0000B607047002070471FB51FBD10B510BD54
:1081F00000F0CAF81146FFF7F7FF02F039FF00F070
:10820000E8F803B4FFF7F2FF03BC02F0B1FE000090
:108210000948804709480047FEE7FEE7FEE7FEE71A
:10822000FEE7FEE7FEE7FEE7FEE7FEE70448054956
:10823000054A064B7047000069A900083181000813
:108240009003002090090020900500209005002058
:10825000704700000FB4044910B503AA029800F05B
:1082600065F810BC5DF814FBA00000202DE9F0417A
:108270000E460446002020622046E168884730B35D
:10828000252805D0D4E901219047206A401CF2E757
:10829000E168204600278847050018D0A5F1410075
:1082A000192802D820354FF4006732462946204667
:1082B0002760FFF797FF40B1012804D0F61D26F094
:1082C00007060836D8E7361DD6E72846DAE7206ADB
:1082D000BDE8F0814FF0000200B513469446964683
:1082E000203922BFA0E80C50A0E80C50B1F12001C9
:1082F000BFF4F7AF090728BFA0E80C5048BF0CC077
:108300005DF804EB890028BF40F8042B08BF7047D4
:1083100048BF20F8022B11F0804F18BF00F8012B46
:10832000704770477047704770470000074B70B543
:108330000D467B4400F011F80446284600F020F872
:1083400010B14FF0FF3070BD204670BD1F2D0000F2
:1083500001694A1C02610878704700B58FB0CDE909
:1083600001310021059105497944CDE903101146F9
:108370006846FFF77BFF0FB000BD0000E5FFFFFF81
:10838000007B00F080007047754600F02BF8AE4689
:1083900005006946534620F00700854618B020B511
:1083A000FFF744FFBDE820404FF000064FF0000704
:1083B0004FF000084FF0000B21F00701AC46ACE88D
:1083C000C009ACE8C009ACE8C009ACE8C0098D46FA
:1083D000704710B50446AFF300802046BDE810405A
:1083E000FFF70FBF004870473003002000BFFEE7D3
:1083F0000146CAB20B1243EA0220704708B50020BA
:10840000009022E19748008800F00F00964908701C
:108410000846007800287CD1944800689449088078
:108420000846008800F03000924908809048008893
:1084300000F440508E4908808C4909684BF6BF72A1
:1084400001EA020080F4005080F0200040F4004176
:1084500041F08001854A11608248008800F01000D8
:1084600090BB1046006848F60F710840114608603E
:1084700001F0D2F87D4909684BF6BF7201EA0200AB
:108480007B49098801F4805109B180F48050784912
:10849000098801F4005109B180F400507549098838
:1084A00001F0100109B180F010007249098801F053
:1084B000200109B180F0200081B241F4004141F077
:1084C00080016A4A116008BDFFE76848006880B211
:1084D0000090BDF8000000F40060B0B3634800688D
:1084E000C0F30E0048F68F7108406049086001F043
:1084F00031FF5E4909684BF6BF7201EA02005C4930
:10850000098801F4805109B180F4805058490988E4
:1085100000E056E001F4005109B180F400505549E3
:10852000098801F0100109B180F010005149098853
:1085300001F0200109B180F0200081B241F4004136
:1085400041F08001494A1160BDE7FFE7BDF8000036
:1085500000F40040002878D044480068C0F30E00C2
:1085600048F68F7108404149086001F0BFFB3F4960
:1085700009684BF6BF7201EA02003D49098801F41F
:10858000805109B180F480503949098801F40051C3
:1085900009B180F400503749098801F0100109B190
:1085A00080F010003349098801F0200109B180F002
:1085B000200081B241F4004141F080012B4A11605A
:1085C00081E7294800782C4901EB8000D0F8000CA5
:1085D00080B20090BDF8000000F40040C0B1224815
:1085E000007801EB8000D0F8000CC0F30E0048F6D4
:1085F0008F7108401C4909781F4A02EB8101C1F8BC
:10860000000C19490978491E1C4A52F8210080477C
:10861000BDF8000000F08000B8B11348007816499A
:1086200001EB8000D0F8000C48F60F7108400E49AD
:108630000978114A02EB8101C1F8000C0A49097856
:10864000491E0F4A52F8210080470848443000680C
:1086500080B20449088000F4004000287FF4D2AEC4
:1086600000BF30E7F6000020C0000020005C0040A2
:10867000D4000020D600002000500040200100203F
:108680000401002010B5012002F0BEFC10BD000066
:1086900010B500200E4908600E48006820F4706094
:1086A0000C4908600846006840F4407008600020EB
:1086B0000949C1F8A801FFF7E5FF01200449086056
:1086C000FFF7E0FF00200449C1F8AC0110BD000035
:1086D000AC812142040C0140008021420D48806998
:1086E00040F008000B4988610B48006820F47F4087
:1086F000094908600846006840F44C500860064884
:1087000008300068044908310860084600680860BD
:108710007047000000100240040C014010B500201A
:108720000E4908600E48006820F470600C4908602B
:108730000846006840F44070086001200949C1F80B
:10874000A801FFF79FFF012004490860FFF79AFF87
:1087500000200449C1F8AC0110BD0000AC812142E9
:10876000040C01400080214270B5054600241548E4
:10877000006820F47060134908600846006840F4FF
:1087800000600860002612E000200F490860FFF733
:1087900079FF01200D49C1F8AC016006040E0A48BA
:1087A0008438006808B1601CC4B2701CC6B2082EC0
:1087B000EADB15B9FFF7B2FF01E0FFF769FF2046DA
:1087C00070BD0000040C0140AC81214200802142B8
:1087D00070B504461248006820F4706010490860C3
:1087E0000846006840F44070086000200D490860A9
:1087F000002512E0E0090B49091F08606006040E1D
:1088000001200949C1F8AC01FFF73CFF00200549F0
:108810000860FFF737FF681CC5B2082DEADB70BDA2
:10882000040C0140AC8121420080214210B50E4869
:10883000006820F470600C4908600846006840F445
:10884000407008600120094908600949C1F8AC017D
:10885000FFF718FF002005490860FFF713FF00200D
:108860000349C1F8AC0110BD040C0140A8812142AC
:108870000080214210B50E48006820F470600C4959
:1088800008600846006840F440700860002009490C
:1088900008600949C1F8A801FFF7F4FE0120054965
:1088A0000860FFF7EFFE01200349C1F8A80110BDE1
:1088B000040C0140AC8121420080214210B500240B
:1088C0001448006820F47060124908600846006887
:1088D00040F40060086001200F49086002F094FB3A
:1088E00001200E49C1F8AC0102F08EFB07E0601CCC
:1088F000C4B2FA2C03DDFFF7BDFF012010BD06480E
:10890000803800680028F2D10349091D086000BFC3
:10891000F4E70000040C0140A881214200802142BC
:108920000B4A02EB8001D1F8001C01F4804171B1C7
:1089300002EB8001D1F8001C48F68F7211404CF216
:1089400080021143024B03EB8002C2F8001C704707
:10895000005000400B4A02EB8001D1F8001C01F0EE
:10896000400171B102EB8001D1F8001C48F68F7212
:10897000114048F2C0021143024B03EB8002C2F8DF
:10898000001C704700500040084A02EB8001D1F8FB
:10899000001C48F68F62114048F280021143034BDD
:1089A00003EB8002C2F8001C70470000005000403A
:1089B0002DE9F0472848006800F110052E88264868
:1089C0000068077AD6B9042F18D124480078012806
:1089D0000FD100212248006880B2801C214A42F851
:1089E000101030202049088000BF00201B4908706B
:1089F00003E0072710201C49088027E0AC88A64226
:108A000001D8042000E002200746B44200D93446D1
:108A1000A0B2A96888478046002000F0D1FD8146B9
:108A2000A2B24946404602F087FAA1B2002001F006
:108A3000B9FB2888001B2880688820446880302083
:108A40000949088000020949088000BF02490968F5
:108A50000F72BDE8F0870000C4000020BC000020B9
:108A6000505C004000600040D6000020D400002090
:108A70002DE9F0412848006800F110042688A0681C
:108A8000C0B1BEB1A588B54200D93546A8B2A1682B
:108A9000884707462088401B2080608828446080E3
:108AA000002000F07DFD8046AAB24146384601F024
:108AB00045F900BF208850B14FF440501749088055
:108AC0000021084601F06EFB3020154908802088FF
:108AD000A188884204DB03200F490968087218E066
:108AE0002088002804DD05200B490968087210E081
:108AF000208870B9062008490968087200210948D1
:108B0000006880B2801C084A42F8101030200449E6
:108B10000880BDE8F0810000C4000020D4000020DF
:108B2000D6000020505C0040006000402DE9F84F66
:108B30009B48006845780027BA46062D1BD1984807
:108B40000068007800F07F00002813D1944909687C
:108B50008878012803D193490968CF690AE002287F
:108B600003D1904909680F6A04E0032802D18D49B6
:108B700009684F6A94E0002D64D1894800684088F4
:108B800000285FD186480068C08802285AD18448EE
:108B900000680079002855D181480068007800F00D
:108BA0007F0028B97E480068808808B97E4F77E04A
:108BB0007B480068007800F07F00012810D17849D8
:108BC00009684879774909688A690021904700282F
:108BD00066D173480068807A002861D0724F5FE0E8
:108BE0006F480068007800F07F00022858D16C4878
:108BF0000068407900F00F0669480068407900F08D
:108C0000700967480068407900F0800038B1674912
:108C100001EB8600D0F8000C00F0300806E0634954
:108C200001EB8600D0F8000C00F440586048007852
:108C3000B04235D9B9F1000F32D1B8F1000F2FD0C1
:108C4000594F2DE0082D07D155480068007800F0F5
:108C50007F0028BB574F23E00A2D21D150480068E0
:108C6000007800F07F0001281AD14D480068807A12
:108C7000B0B14B480068408890B949480068007915
:108C800070B947480068C088012809D1444909687B
:108C90004879444909688A690021904700B9464FDC
:108CA00057B13F480068A0F812A03D4800688761AE
:108CB0000020B84700240FE0394A12685078394A3A
:108CC0001268116988470446032C05D109203449EC
:108CD00009680872BDE8F88F31480068008A4FF6CD
:108CE000FF71884204D109202D4909680872F1E713
:108CF000022C03D02A480068008A20B9082028499D
:108D000009680872E6E726480068007800F08000ED
:108D1000E0B323480068C088009021480068008ABA
:108D20000099884204D91E4900980968088223E006
:108D30001B480068008A1A490968C98888421BDAFA
:108D400017480068008A1749096891F82C10884272
:108D500003DA0020194908700EE011480068008A03
:108D60001049096891F82C1090FBF1F201FB1200F8
:108D700010B90120114908700A48006890F82C10B9
:108D8000074800688182FFF713FE07E0FFE7032032
:108D900003490968087200030949088000BF99E780
:108DA000C4000020C8000020F5A5000800500040C5
:108DB0004501002079A50008C9A50008BC000020D5
:108DC000D40000207047000001200149087070475E
:108DD000D8000020014908607047000014040140D9
:108DE000002123498279002A3AD00A461268036892
:108DF0009A430B461A600A1D126803689A430B1DBA
:108E00001A60027911440A6803681A430A60184A12
:108E10000832126803689A43154B08331A601A1D0A
:108E2000126803689A43124B0C331A604279102A75
:108E30000ED11A1F126803681A430D4B08331A60CB
:108E40001A1D126803681A43094B0C331A600DE0AF
:108E50000749427911440A6803681A430A6005E029
:108E6000027911440A6803689A430A607047000057
:108E70000004014010B503A0FFF7ECF903200849F6
:108E8000086010BD75736220656E746572206C6F2A
:108E90007720706F776572206D6F64650D0A000032
:108EA000E00100200EB537A0FFF7D4F968E00121FA
:108EB000082000F0ADFF0320ADF8000010208DF871
:108EC000030003208DF802006946324800F091FA51
:108ED0000121304800F062FB02212E4800F05EFBC9
:108EE000FFF7FCFB00202C4908600A2002F066F81E
:108EF00001202A49C1F880010A2002F05FF802200F
:108F0000ADF8000028208DF803006946214800F0E4
:108F100070FA02211F4800F03FFB642002F04EF877
:108F200000208DF80400012201A900F039FA012285
:108F300001A9A42000F034FA16208DF804000122C3
:108F400001A9802000F02CFA0C208DF804000122E9
:108F500001A9882000F024FA022201A9A12000F032
:108F6000F3F99DF805009DF8041000EB012001289D
:108F700005D100208DF804008DF806000EBD00BF5D
:108F800095E70000465433353137555F496E6974B3
:108F90000D0A0000000C0140808121420080214226
:108FA0002DE9F04106460F461546FFF73FFC7020BD
:108FB000FFF70EFCFFF782FC8046F0B2FFF708FCDB
:108FC000FFF77CFC8046FFF731FC7120FFF700FCC7
:108FD000FFF774FC804600240BE0691EA14201D01B
:108FE000012100E000210846FFF7BEFB3855601C58
:108FF000C4B2AC42F1DBFFF73DFC4046BDE8F08176
:109000002DE9FC5F4FF00008002500260024002712
:10901000A246A346A146062001903D22C749022050
:10902000FFF7BEFF8046B8F1010F0DD100BF04E08D
:109030000020C2490855601CC4B23D2CF8DBFFF784
:1090400031FF0020BDE8FC9FBC480078FF2801D11B
:109050000020F7E7B948007800F00F050B2D7DDA06
:10906000002496E004EB44004000401CB349085C37
:109070008109B3480155005D022801DD0020E1E7C8
:1090800004EB44004000C01CAC49085C0109AC483A
:109090000A380155005D0A2801DD0020D2E704EB03
:1090A00044004000801CA549095C04EB44004000DA
:1090B000401CA24A105C00F00F0041EA0020C0F5FD
:1090C0008760C0EB00304FF4876190FBF1F081B214
:1090D0009B48323820F8141004EB44004000001D77
:1090E0001146095C04EB44004000C01C105C00F019
:1090F0000F0041EA0020C0F5F060C0EB00304FF4F3
:10910000F06190FBF1F081B28D481E3820F8141008
:10911000143830F81400B0F5805F05DA884832382A
:1091200030F81400002804DA00218548323820F88D
:10913000141083481E3830F81400B0F5805F05DA4B
:109140007F481E3830F81400002804DA00217C48DB
:109150001E3820F814107A48005D00E0E3E018B9EA
:1091600007217748015512E07548005D012803D1B9
:109170000621734801550AE07148005D022803D1B9
:1091800007216F48015502E007216D480155601C19
:10919000C4B2AC42FFF666AF6A480078A8427CDDF4
:1091A00055BB002414E00621654801553430015DAB
:1091B0003E380155163030F814103E3820F814109F
:1091C000523030F814103E3820F81410601CC4B22D
:1091D0005C4800788442E6DB5A480078584B0A3BEA
:1091E000574AA2F11E010090A1F1140000F022FCE8
:1091F00054480570002025E72E46002433E0002760
:109200000BE04F483430015D3E38C05D814202D1F1
:109210004FF0010903E0781CC7B2AF42F1DB00BF99
:10922000B9F1000F1BD10621454881553430005D4E
:109230000A2801DD002005E741483430015D3E3851
:109240008155163030F814103E3820F81610523080
:1092500030F814103E3820F81610701CC6B24FF0CB
:109260000009601CC4B2374800788442C7DB701B19
:10927000C0B2DFF8CCC0ACF10A0C0CEB0503DFF890
:10928000C0C00CEB0502ACF11E0C0CEB4501ACF1BF
:10929000140C00900CEB450000E01FE000F0CAFB4E
:1092A000002415E02648015D3E3001554838015D37
:1092B0003E300155663830F814103E3020F8141056
:1092C0002A3830F814103E3020F81410601CC4B254
:1092D000AC42E7DB1B4805702846B3E600241CE0DF
:1092E00017480A38005D0A2801DD0020AAE6144864
:1092F000015D3E3001554838015D3E30015566380C
:1093000030F814103E3020F814102A3830F81410B9
:109310003E3020F81410601CC4B2AC42E0DB0948B7
:10932000057028468EE6002404E000200349085515
:10933000601CC4B23D2CF8DB002083E6EC01002069
:109340004E000020980000202DE9F04106460F460F
:109350001546FFF76BFA7020FFF73AFAFFF7AEFAFF
:10936000F0B2FFF735FAFFF7A9FAFFF75FFA7120BD
:10937000FFF72EFAFFF7A2FA00240BE0691EA142C4
:1093800001D0012100E000210846FFF7EDF9385532
:10939000601CC4B2AC42F1DBFFF76CFABDE8F081AF
:1093A0002DE9F04105460E4617464FF00008FFF73D
:1093B0003DFA7020FFF70CFAFFF780FAE8B2FFF7EA
:1093C00007FAFFF77BFA00240BE0305DFFF700FAA5
:1093D000FFF774FA8046B8F1000F00D003E0601C7C
:1093E000C4B2BC42F1DB00BFFFF744FA4046BDE81F
:1093F000F0812DE9F04102460025002600200023DF
:109400000024002791F803C00CF00F0591F803C069
:109410000CF0100CBCF1000F03D091F802C04CEA24
:10942000050591F800C0BCF1000F31D01468002090
:109430002BE04FF0010C0CFA00F3B1F800C00CEA7D
:1094400003069E4220D183004FF00F0C0CFA03F765
:10945000BC4305FA03FC4CEA040491F803C0BCF1D8
:10946000280F06D14FF0010C0CFA00FCC2F814C012
:109470000AE091F803C0BCF1480F05D14FF0010C90
:109480000CFA00FCC2F810C0401C0828D1D31460AC
:10949000B1F800C0BCF1FF0F34DD546800202EE0AD
:1094A00000F1080C4FF0010808FA0CF3B1F800C005
:1094B0000CEA03069E4221D183004FF00F0C0CFAF8
:1094C00003F7BC4305FA03FC4CEA040491F803C01B
:1094D000BCF1280F05D100F1080C08FA0CF8C2F80D
:1094E000148091F803C0BCF1480F07D100F1080CBB
:1094F0004FF0010808FA0CF8C2F81080401C082848
:10950000CED35460BDE8F081F0B50A4600230024B4
:109510000021002500F00046B6F1004F02D11D4E9B
:10952000F16901E01B4E7168C0F3034583B200F49A
:109530004016B6F5401F08D121F07061154E7668CF
:1095400026F07066134F7E6012E000F48016B6F5C8
:10955000801F06D1032606FA05F4A14341F070618D
:1095600006E0460D360103FA06F6B14341F070619C
:1095700022B1460D360103FA06F6314300F00046EB
:10958000B6F1004F02D1034EF16101E0014E71606E
:10959000F0BD00000000014041617047016170476B
:1095A00001460548006880B200EBC100001D034A77
:1095B00032F8100080B27047505C004000600040FC
:1095C00001460548006880B200EBC100034A32F84A
:1095D000100080B270470000505C00400060004006
:1095E00070B50A480468001D0568001D066834440B
:1095F00054B108220649204600F046F804220449E6
:109600001031284600F040F870BD0000E8F7FF1F59
:10961000DB00002000BFFEE710B518480068047AA0
:10962000022C01D0042C05D1FFF7C2F913480068C1
:10963000047A1CE0062C19D11048006840780528EF
:109640000ED10E480068007800F07F0040B90B4949
:109650000968C87800F0FCFC09490968086A804775
:109660000849096888688047082400E008240349FD
:1096700009680C7200F078FB10BD0000C4000020E7
:10968000D0000020C800002030B50B46002100BFEC
:1096900016E00A24B4EB107F05D9302404EB1074D3
:1096A00003F8114005E0412404EB10740A3C03F870
:1096B0001140000100254C00641C1D554C1CE1B2FA
:1096C0009142E6DB30BD000070B504460025062C53
:1096D00018D133480068007800F07F00012811D1CC
:1096E0002F480068407968B92D48006880782228A2
:1096F00001D12C4D45E02A4800688078212840D1CE
:10970000294D3EE026480068007800F07F002128BF
:1097100003D1032C01D1254D33E0214800680078A6
:10972000A12813D1012C11D11D480068408840F2B6
:109730000321884225D11A480068808808BB184850
:109740000068C08802281CD1194D1AE0144800682E
:109750000078212815D1092C13D1114800684088C0
:1097600040F2033188420CD10D480068808840B92E
:109770000B480068C088032803D10E4D09200E490C
:1097800008700DB9022070BD054800688561002190
:109790000348006841820020A8470020F3E700004A
:1097A000C400002031980008E5970008F9970008E8
:1097B00015980008A59900084001002010B504463E
:1097C0000249204600F0EEFE10BD0000A40100207A
:1097D00010B504460249204600F0E4FE10BD00002A
:1097E0009C01002010B504460249204600F0DAFE34
:1097F00010BD0000B4010020014629B90120034A30
:1098000012681082002070470148FCE7C400002065
:109810003C010020014629B90220034A1268108247
:10982000002070470148FCE7C4000020DC01002054
:1098300010B504460249204600F0B4FE10BD0000F9
:10984000AC01002070B5054606480068C478042CB9
:1098500001DD002070BD044800EBC401284600F083
:10986000A1FEF7E7C4000020BC0100200246002949
:1098700001DD02207047002A01DD0220FAE7002006
:10988000F8E7000000B502460C480068007800F0D8
:109890007F00212804D10B2A02D100F077F800BD07
:1098A00006480068007800F07F00212804D10A2AC9
:1098B00002D100F069F8F2E70220F0E7C4000020CE
:1098C00010B5002023490968887222490968C872C6
:1098D0002148C0791F4909684872002000F0B0FB98
:1098E0004FF40071002000F0A5FC1021002000F0D2
:1098F00067FC1821002000F0D3FB5821002000F065
:1099000041FC0020FFF740F8144890F82C1000208C
:1099100000F0D8FB002000F01BFC4FF4C0610120D8
:1099200000F088FC4FF48071012000F02BFC042132
:10993000012000F037FC0021012000F0E9FB20218C
:10994000012000F03DFC002000F082FB01200449D2
:10995000086010BDC4000020D2B1000848010020FA
:10996000E00100200348817A11B10521024A11600B
:1099700070470000F4020020E001002004200149AB
:1099800008607047E001002000207047034800682D
:10999000C17803480160002070470000C400002027
:1099A0003C010020014629B90320034A12681082B5
:1099B000002070470148FCE7C4000020420100205D
:1099C00005480078092806D1044840780449087001
:1099D000002001490870704740010020420100202A
:1099E000410100207047000010B5FFF7F9FD00208D
:1099F00005490968887200F0DBF901F089FA002056
:109A00000249086010BD0000C4000020E0010020F1
:109A10000548817A19B10521044A116002E001214B
:109A2000024A116070470000F4020020E0010020AB
:109A300000BFFEE72DE9FF4705460E4690469946D2
:109A40000C9F0FB9BDE8FF870A2F00DD0A2702200F
:109A50008DF80000002463E018F804008DF8010080
:109A600019F804008DF8020015F814008DF80300B1
:109A700035F81400000A8DF8040016F814008DF86B
:109A8000050036F81400000A8DF8060014B98DF8A8
:109A90000D7002E000208DF80D00601CC4B2BC42C5
:109AA0001CDA18F804008DF8070019F804008DF886
:109AB000080015F814008DF8090035F81400000AA4
:109AC0008DF80A0016F814008DF80B0036F8140013
:109AD000000A8DF80C00601CC4B209E0072004E005
:109AE00000210DF80010411CC8B20D28F8DB00BFA2
:109AF00000BF0D4800780028FBD00120FFF760FD73
:109B000082460E225146684601F016FA0E210120C7
:109B100000F048FB012000F073FB002002490870B0
:109B2000BC4299DB00BF8DE7D8000020704770472A
:109B300070B5002100230F22C47804B3154C2468AB
:109B400004F4E064C4F5E064210AC1F10403CA40EE
:109B5000447804FA03F184781440214309010E4C3F
:109B60000678A155047804F01F050124AC4005785F
:109B70006D11AD0005F1E025C5F8004109E004785C
:109B800004F01F050124AC40044D0678761145F819
:109B9000264070BD0CED00E000E400E080E100E054
:109BA00002490143024A1160704700000000FA05B3
:109BB0000CED00E070B5022647480068447846483E
:109BC0000068007800F07F00002844D1092C03D100
:109BD00000F090FD06465FE0052C14D13E48006879
:109BE000C0787F280BDC3C480068807838B93A4858
:109BF0000068808818B938480068807A08B108255C
:109C000065E0002648E0032C0ED133480068C07898
:109C1000012807D130480068808818B900F08EFD0F
:109C2000064639E0022637E0012C35D12A48006883
:109C3000C07801280DD128480068808848B9264896
:109C40000068407A00F0200018B100F0DFFB064603
:109C500022E0022620E020480068007800F07F0023
:109C6000012805D10B2C17D100F0E4FD064613E0C6
:109C700019480068007800F07F0002280BD1012C01
:109C800003D100F0C3FB064606E0032C04D100F02C
:109C900069FD064600E002264EB1E0B20F4A1268A6
:109CA000516988470646032E01D109250FE00EB100
:109CB00008250CE0062500210948006880B2801CB8
:109CC000084A42F8101030200749088000BF0249B6
:109CD00009680D7270BD0000C4000020C80000209B
:109CE000505C004000600040D600002010B51148D4
:109CF0000068047A022C01D0042C01D1082412E05F
:109D0000032C01D0052C05D1FEF7B2FE09480068EE
:109D1000047A08E0072C05D107490968C86880471C
:109D2000082400E00824034909680C7200F01CF8BC
:109D300010BD0000C4000020C8000020F0B5561C73
:109D40007510074E06EB41042B4605E034F8047B02
:109D500020F8017B401C5B1E002BF7D1F0BD0000FA
:109D6000006000407047000010B50D4890F82C10BE
:109D7000002000F0A7F90B480068007A082805D1F8
:109D800040020949088010200849088005480068F9
:109D9000007A092801D1012010BD0020FCE7000055
:109DA00048010020C4000020D4000020D60000207C
:109DB00010B5012000F02CFF01240B4804600020A6
:109DC0000A49088008460088074908600020091DE4
:109DD00008604FF4E05005490880084600880249B1
:109DE0000860002010BD0000405C0040CE00002054
:109DF00029B1064AD2690243044BDA6104E0034AFE
:109E0000D2698243014BDA617047000000100240C2
:109E100029B1064A92690243044B9A6104E0034A5D
:109E200092698243014B9A61704700000010024022
:109E300030B500210022002400232D4D6D6805F06F
:109E40000C0121B1042905D0082923D105E0294DB1
:109E5000056022E0274D05601FE0254D6D6805F483
:109E60007012234D6D6805F48034022505EB924293
:109E70001CB9214D554305600BE01D4D6D6805F47F
:109E800000351DB11C4D5543056002E0194D554389
:109E9000056002E0174D056000BF00BF144D6D68FE
:109EA00005F0F0010909154D6B5C0568DD40456062
:109EB0000F4D6D6805F4E061090A104D6B5C456853
:109EC000DD4085600A4D6D6805F46051C90A0B4D8F
:109ED0006B5C4568DD40C560054D6D6805F440412B
:109EE000890B074D6B5CC568B5FBF3F5056130BDAB
:109EF0000010024000127A0000093D00A600002078
:109F0000B60000200149086070470000D8004242B6
:109F100070B50546072D01D02E4805702D480078F4
:109F200008284ED2DFE800F004111A202B384E4FDB
:109F30002948006828B900F053F806202549087020
:109F400002E005202349087041E000F049F80420B0
:109F50002049087001202049086038E002201D498E
:109F600048700320087032E01A484078401E1949B2
:109F700048700846407808B90420087027E0174860
:109F8000006884B244F010041448046005201149AC
:109F900008700A2048701AE00E484078401E0D49AB
:109FA00048700846407858B90C48006884B224F0DC
:109FB00010040A4804600620087000200649086062
:109FC00005E000BF00BF06200249087000BF00BFC7
:109FD00070BD0000E5010020E8010020405C004069
:109FE00010B50748006884B224F0040404480460F3
:109FF000FFF70EFD4FF43F400149086010BD00001F
:10A00000405C004008B501210D20FFF701FF012150
:10A010000848FFF779FA0820ADF8000010208DF805
:10A02000030003208DF8020069460348FFF7E1F9B9
:10A0300008BD000000043000000C01407047000023
:10A040004FF6F8710140014A11607047505C0040C2
:10A0500030B501460F4B1A78002014E003060E4C71
:10A0600004EB9353D3F8003C48F68F74234048F236
:10A0700080042343C4B223430406074D05EB9454E4
:10A08000C4F8003C401C9042E8D341F08003034CEC
:10A09000236030BD45010020005000404C5C004072
:10A0A00010B54A105300054A126892B202EBC00282
:10A0B000121D034C44F8123010BD0000505C0040EB
:10A0C0000060004010B502460F48006880B200EB07
:10A0D000C200801D0D4C04EB40033E290BDD4811EE
:10A0E00001F01F040CB9441EA0B24FF4004444EA2E
:10A0F00080241C6007E0481001F001040CB1441CEE
:10A10000A0B284021C6010BD505C004000600040A2
:10A1100030B50E4C04EB8003D3F8003C4BF68F7443
:10A1200003EA040201F480530BB182F4805201F47B
:10A1300000530BB182F4005242F4004343F0800319
:10A14000024D05EB8004C4F8003C30BD00500040D7
:10A1500010B50B4B03EB8002D2F8002C4BF68F733B
:10A1600002EA030181F4805181F4005141F400427C
:10A1700042F08002024C04EB8003C3F8002C10BDB7
:10A180000050004010B54A105200044B1B689BB2AF
:10A1900003EBC003024C44F8132010BD505C004098
:10A1A00000600040044A126892B202EBC002921CA6
:10A1B000024B43F812107047505C004000600040B2
:10A1C00030B50E4C04EB8003D3F8003C48F6BF7466
:10A1D00003EA040201F010030BB182F0100201F057
:10A1E00020030BB182F0200242F4004343F08003CD
:10A1F000024D05EB8004C4F8003C30BD0050004027
:10A2000010B50B4B03EB8002D2F8002C48F6BF735D
:10A2100002EA030181F0100181F0200141F40042C3
:10A2200042F08002024C04EB8003C3F8002C10BD06
:10A230000050004010B5074B03EB8002D2F8002C11
:10A2400048F68F131A400A43024C04EB8003C3F80C
:10A25000002C10BD0050004010B500F001F810BDFA
:10A260000CB50020019000903348006840F4803025
:10A270003149086000BF3048006800F400300090A9
:10A280000198401C0190009818B90198B0F5A06F92
:10A29000F1D12948006800F4003010B1012000908D
:10A2A00001E0002000900098012843D12348006875
:10A2B00040F01000214908600846006820F00300C3
:10A2C00008600846006840F0020008601A484068CC
:10A2D000194948600846406848600846406840F4AC
:10A2E000806048600846406820F47C10486008465A
:10A2F000406840F4E81048600846006840F080700C
:10A30000086000BF0C48006800F000700028F9D019
:10A310000948406820F00300074948600846406843
:10A3200040F00200486000BF0348406800F00C00A5
:10A330000828F9D10CBD00000010024000200240A6
:10A3400010B50020FFF7DEFD0121C805FFF750FD25
:10A3500010BD000038B501242948006880B2001DF6
:10A36000284931F8100080B201EB400000902648E7
:10A370000068007A092832D00098007822490968DC
:10A3800008700098401C0090009800781E490968E9
:10A3900048700098401C0090009800EB440000902A
:10A3A000009931F8020B0091FEF722F8164909686E
:10A3B0004880009800EB44000090009931F8020BAF
:10A3C0000091FEF715F8104909688880009800EBA5
:10A3D00044000090009800880B490968C88001205B
:10A3E00009490968087208480068C08810B9FFF771
:10A3F000E1FB01E0FEF79AFBFFF7B6FC38BD000079
:10A40000505C004000600040C40000202DE9F0478F
:10A4100054480068007800F07F08B8F1000F0AD1B6
:10A4200050480068407A00F0DF004E4909684872E1
:10A430000020BDE8F087B8F1020F7CD149480068E0
:10A44000408818B947480068007908B10220F0E751
:10A45000DFF8149143480068477927F080052C46BF
:10A4600040480068407900F0800038B13F4901EB76
:10A470008400D0F8000C00F0300606E03B4901EB08
:10A480008400D0F8000C00F4405699F80000A8426F
:10A4900004D91EB133480068807A08B90220C8E7A1
:10A4A00007F0800080B1314901EB8400D0F8000C46
:10A4B00000F0300010284BD1E0B2FEF74BFAE0B2CA
:10A4C0003021FFF77DFE43E0284901EB8400D0F8FE
:10A4D000000C00F44050B0F5805F39D1E4B9244A53
:10A4E00092F82C10E0B2FFF7EDFD204A02EB840158
:10A4F000D1F8001C4BF68F7201EA020080F4805004
:10A5000080F4005040F4004141F08001174B03EB10
:10A510008402C2F8001C1BE0E0B2FEF701FA134A05
:10A5200002EB8401D1F8001C4BF68F7201EA0200A5
:10A5300080F4805000E011E080F4005040F40041CD
:10A5400041F08001094B03EB8402C2F8001C00BFFC
:10A55000084909684869804700206AE700BF02206F
:10A5600067E70000C40000204501002000500040C3
:10A5700048010020D000002010B504462CB901206D
:10A58000064909680882002010BD05490968086865
:10A590008047024800680A30F6E70000C400002047
:10A5A000D000002010B5024606480068438A32B940
:10A5B0008888C01A034C24682082002010BD0868D7
:10A5C0001844FBE7C400002010B504462CB9012054
:10A5D000064909680882002010BD05490968886895
:10A5E0008047024800680C30F6E70000C4000020F5
:10A5F000D000002010B504462CB902203949096862
:10A600000882002010BD00203749088035480068C6
:10A61000007800F07F0018BB32490968487A00F0E2
:10A62000200131B13049097841F002012E4A117000
:10A6300005E02D49097801F0FD012B4A117000F069
:10A64000800131B12849097841F00101264A117091
:10A6500005E02549097801F0FE01234A11703AE02E
:10A6600020480068007800F07F00012801D11E48D2
:10A67000C8E71C480068007800F07F00022828D155
:10A68000184A1268517901F00F0001F080027AB186
:10A69000164B03EB8002D2F8002C02F03002102A95
:10A6A00016D1114A127842F001020F4B1A700FE0D6
:10A6B0000E4B03EB8002D2F8002C02F44052B2F5AC
:10A6C000805F05D1084A127842F00102064B1A70E9
:10A6D00001E0002096E706490968086980470248BA
:10A6E00090E70000C4000020BA00002000500040A5
:10A6F000D000002010B50E480068C0780D49497898
:10A70000884213DC0A480068807878B908480068F5
:10A71000808858B906480068C07805490968887279
:10A720000549096848688047002010BD0220FCE701
:10A73000C400002045010020D000002010B50748CB
:10A740000068407A40F020000449096848720449D2
:10A750000968C8698047002010BD0000C4000020BF
:10A76000D00000202DE9F0412E480068467926F0FF
:10A7700080073C462B480068407900F0800038B1E3
:10A78000294901EB8400D0F8000C00F0300506E008
:10A79000254901EB8400D0F8000C00F44055234813
:10A7A0000078A04208D91F480068408820B91DB130
:10A7B0001C480068807A10B90220BDE8F08106F0DC
:10A7C0008000A0B1184A02EB8401D1F8001C48F6C1
:10A7D000BF7201EA020080F0100040F4004141F035
:10A7E0008001114B03EB8402C2F8001C14E00E4AF6
:10A7F00002EB8401D1F8001C4BF68F7201EA0200D3
:10A8000080F4805040F4004141F08001064B03EB9E
:10A810008402C2F8001C00BF0549096888698047A6
:10A820000020CAE7C400002000500040450100207D
:10A83000D000002010B5174B1B68D978154B1B684A
:10A840005879154B1B689A6990470446114800686F
:10A85000807AE8B13CB90F480068007918B90D4812
:10A860000068807808B1022010BD8CB90B490968D6
:10A87000C868804707480068407906490968C87277
:10A8800004480068C0780349096808730020EBE7B2
:10A890000220E9E7C4000020C8000020D00000200A
:10A8A00038B50025002000902148006884B200BF20
:10A8B00009E0204901EB8500D0F8000C80B21E4968
:10A8C00041F825006D1C082DF3D344F4806418482A
:10A8D000046044F00104046024F00104046000BF3B
:10A8E0001348001D006800F480600028F8D04FF67F
:10A8F000FF300F49091D0860002509E00E4850F897
:10A90000250080B20B4A02EB8501C1F8000C6D1CDA
:10A91000082DF3D344F0080405480460006884B2AD
:10A9200044F0040402480460FEF7A4FA38BD0000B5
:10A93000405C00400050004010030020042808D173
:10A940004FF0E021096941F004014FF0E02211616C
:10A9500007E04FF0E021096921F004014FF0E02207
:10A96000116170477047000010B51348006840F04F
:10A9700001001149086008464068104908400E4926
:10A980004860084600680E4908400B4908600846C0
:10A99000006820F4802008600846406820F4FE002B
:10A9A00048604FF41F008860FFF756FC4FF00060CE
:10A9B0000449086010BD0000001002400000FFF8CC
:10A9C000FFFFF6FE08ED00E010B5FEF76BFA024857
:10A9D00002494860012010BD0190000814000020C9
:10A9E00010B540F225511D4800F04AF810B31B483D
:10A9F00000F002F9C4B21A48008800F40040C8B957
:10AA00001748008800F4804060B10A2C03D0002071
:10AA10001349088020E01248008840F400401049A3
:10AA2000088019E00D2C06D10D48008840F48040C4
:10AA30000B49088010E00A480088C0F30D0009495E
:10AA40000C5407480088401C0549088008460088C7
:10AA5000C72801DD0020088010BD0000003801403B
:10AA6000A40000202902002021B1828942F4005272
:10AA7000828104E082894DF6FF731A40828170471B
:10AA800070B50246002400230025002040F66A1617
:10AA9000B14200D100BFC1F3421501F01F030126EE
:10AAA00006FA03F3012D02D19689334006E0022D08
:10AAB00002D1168A334001E0968A33400C120126F7
:10AAC00006FA04F41688344013B10CB1012000E0FA
:10AAD000002070BDF0B503460024002600250020AC
:10AAE00040F66A17B94200D100BF1846C1F34214BC
:10AAF00001F01F06012707FA06F5012C01D10C30E1
:10AB000004E0022C01D1103000E014301AB10768C3
:10AB10002F43076002E00768AF430760F0BD000005
:10AB20002DE9F04786B005460E460024A24600BF38
:10AB3000A1460027B08900B100BF2F462C8A4CF6F1
:10AB4000FF700440F08804432C82AC894EF6F31069
:10AB50000440B08831890843718908430443AC81BB
:10AB6000AC8A4FF6FF400440B0890443AC8201A890
:10AB7000FFF75EF91F48874202D1DDF810A001E01F
:10AB8000DDF80CA0A88900F4004040B10AEBCA002F
:10AB900000EB0A1031684900B0FBF1F807E00AEB5E
:10ABA000CA0000EB0A1031688900B0FBF1F864209C
:10ABB000B8FBF0F004012009642101FB1089A88989
:10ABC00000F4004040B1322000EBC900B0FBF1F0CE
:10ABD00000F00700044308E0322000EB0910642174
:10ABE000B0FBF1F000F00F0004432C8106B0BDE88B
:10ABF000F08700000038014001468888C0F3080053
:10AC0000704710B54FF48020FEF7E4F810BD000047
:10AC100010B504461CB104A0FDF71CFB02E008A01F
:10AC2000FDF718FB10BD00007573622070756C6C29
:10AC300020757020656E61626C650D0A0000000071
:10AC40007573622070756C6C207570206469736117
:10AC5000626C650D0A00000010B51C210948FDF763
:10AC600039FB08480849086002200968087207484B
:10AC700007490860074808490860054909680868E5
:10AC8000804710BDF4020020C400002048010020CD
:10AC9000C800002078010020D00000200EB54FF43D
:10ACA0008020FEF797F84FF48020009008208DF860
:10ACB000050001208DF806006846FEF791F8142083
:10ACC0008DF8080001208DF8090000208DF80A0099
:10ACD00001208DF80B0002A8FEF72AFF2A208DF82C
:10ACE000080000208DF8090002A8FEF721FF0EBD24
:10ACF00010B588B000247148006871490880084682
:10AD0000008800F400406F490988084008B1FDF749
:10AD100075FB6B48008800F480606A490988084028
:10AD200030B14FF6FF306549086067494868804791
:10AD30006348008800F4005062490988084018B14F
:10AD40004DF6FF705D4908605D48008800F4805052
:10AD50005C490988084030B14EF6FF7057490860D9
:10AD60000020FFF7D5F85648008800F400605549E8
:10AD700009880840F8B15548007848B10020534987
:10AD80000870FFF78DFD4FF2FF704C49086012E02C
:10AD9000002080F3138800BF00BF4D48006800F416
:10ADA000E0604C490843001D49490860BFF34F8FDC
:10ADB00000BF00BFFEE74248008800F40070414930
:10ADC0000988084040B14FF6FF503C4908604248AE
:10ADD0000078401C404908703948008800F48070B1
:10ADE000384909880840002866D04FF6FF6033498B
:10ADF0000860081D006800F40040002856D037485D
:10AE00000068401C3549086008460068032850D98E
:10AE10002A48001F006800F00800002849D1274890
:10AE2000001F006880B22E490860002408E02D4908
:10AE300001EB8400D0F8000C80B24DF82400641CB3
:10AE4000082CF4D32648006840F00100244908602B
:10AE50000846006880B21949091F08602048006848
:10AE600020F001001E4908600846006880B21349BE
:10AE7000091F086000BF1148006800F480600028C6
:10AE8000F9D04FF6FF300D490860002408E05DF866
:10AE9000240080B2134A02EB8401C1F8000C641C48
:10AEA000082CF4D300200D49086002E000200B4973
:10AEB00008600720FFF72CF808B010BD445C004084
:10AEC000F6000020CE00002048010020E401002010
:10AED0000CED00E00000FA05F8000020FC00002066
:10AEE000000100200050004010B5FFF701FF10BD29
:10AEF00010B5044624B108210448FEF74FFB03E0D7
:10AF000008210248FEF748FB10BD0000000C01407C
:10AF10000020064908604FF43F4005490880084674
:10AF200000880249091F086000207047445C004007
:10AF3000CE00002000BFFEE7F0B5144604F1010C7E
:10AF40004FEA6C07DFF824C00CEB41033D460AE0F2
:10AF50000678401C90F800C046EA0C2223F8022B29
:10AF60009B1C401C6D1E002DF2D1F0BD0060004006
:10AF7000014600BF7047000010B56FF00400FFF7F6
:10AF8000DDFC0A4800680A49B0FBF1F00949087085
:10AF90000846007800EB4001C1EBC0104FF6FF718E
:10AFA00001EAC0000449088010BD00000000002034
:10AFB00000127A009A0000209C0000200146114AED
:10AFC00012884A434FF0E0235A6100229A611A46E0
:10AFD000126942F001021A6100BF4FF0E0221069CD
:10AFE00000F001021AB100F48032002AF5D04FF0CF
:10AFF000E022126922F001024FF0E0231A610022E0
:10B000009A6170479C0000200146114A12784A4319
:10B010004FF0E0235A6100229A611A46126942F009
:10B0200001021A6100BF4FF0E022106900F0010236
:10B030001AB100F48032002AF5D04FF0E0221269F4
:10B0400022F001024FF0E0231A6100229A6170475A
:10B050009A00002000BF054A128802F04002002A30
:10B06000F9D0C2B2014B1B1D1A8070470038014055
:10B070009EB000BF00BF00BF142119A8FDF72AF938
:10B08000142114A8FDF726F914210FA8FDF722F9C1
:10B0900014210AA8FDF71EF90020079008900990D6
:10B0A00004900590069001900290039019481A4967
:10B0B0000860FFF761FF4FF4A060FEF771FD4FF4E9
:10B0C000165000F02DF8FEF79DFF0020FFF710FF4F
:10B0D0004FF49670FFF772FF0120FFF709FFFFF7AB
:10B0E000DDFDFFF72DF9FFF7B7FDFFF76DFC10E071
:10B0F0000A49486880470446002C0ADD074B303374
:10B1000003F10A02A2F11E01A1F114000094FEF75E
:10B1100091FCEDE70080000808ED00E0140000203D
:10B1200010B586B00446012144F20400FEF770FE1B
:10B130004FF40070ADF8140003208DF816001820AD
:10B140008DF8170005A91C48FEF753F94FF48060ED
:10B15000ADF8140004208DF8170005A91648FEF775
:10B1600048F925208DF8000003208DF801008DF8A6
:10B17000020001208DF803006846FEF7D9FC019417
:10B180000020ADF80800ADF80A00ADF80C00ADF8ED
:10B1900010000C20ADF80E0001A90848FFF7C0FC14
:10B1A000012240F225510548FFF794FC0121034894
:10B1B000FFF75AFC06B010BD0008014000380140FE
:10B1C0001201100100000040830410570002010228
:10B1D000030109022200010100E02009040000012E
:10B1E0000300000009211001000122F5000705817C
:10B1F0000340000105010902A10185010901A10027
:10B20000050919012903150025019503750181021E
:10B21000950175058103050109300931150026FFE7
:10B220000F350046FF0F751095028102C0C0050D55
:10B230000904A10185020922A10209421500250184
:10B240007501950181020932810209478102950544
:10B250008103250A7508095195018102050126FF20
:10B260000F75105500650009303500460000810259
:10B2700009314600008102C0A102050D09421500F6
:10B280002501750195018102093281020947810278
:10B2900095058103250A750809519501810205016B
:10B2A00026FF0F7510550065000930350046000077
:10B2B000810209314600008102C0050D095475085C
:10B2C00095011500250A81020955B102C0050D0935
:10B2D0000EA10185030923A1020952095315002576
:10B2E0000A75089502B102C0C004030904100344A2
:10B2F00000460052006F0062006F0074002003558A
:10B30000005300420020004D0075006C007400697D
:10B3100000200054006F007500630068000000000A
:10B3200040B3000800000020EC0100006C81000820
:10B33000DCB30008EC010020A4070000C88100086D
:10B340001184A24A04100B0102030406070809C96C
:10B35000A914080190028E08299E69A20C1D0204FE
:10B36000069E15011A03531254124D123302203255
:10B3700013C98D0C30082F9B049113020113E99916
:10B380001C08C1980419081AE50413C9961B0885FE
:10B39000101A6D0413D1971B08BD041A450C4132D5
:10B3A0004029401A652809165C1A7D1C13C0B13368
:10B3B00008121AD20832221AF40832F51AE40832B6
:10B3C0000913E9B23308041AED0832101AFD0832E5
:0CB3D0002022D92B201A97620A7201007B
:04000005080081313D
:00000001FF
